:020000040800F2
:1000000000000320A5030008CD030008CD0300086D
:10001000CD030008CD030008CD0300080000000058
:10002000000000000000000000000000CD030008F8
:10003000CD03000800000000CD030008CD03000838
:10004000CD030008CD030008CD030008CD03000850
:10005000CD030008CD030008CD030008CD03000840
:10006000CD030008CD030008CD030008CD03000830
:10007000CD030008CD030008CD030008CD03000820
:10008000CD030008CD030008CD030008CD03000810
:10009000CD030008CD030008CD030008CD03000800
:1000A000CD030008CD030008CD030008CD030008F0
:1000B000CD030008CD030008CD030008CD030008E0
:1000C000CD030008CD030008CD030008CD030008D0
:1000D000CD030008CD030008CD030008CD030008C0
:1000E000CD030008CD030008CD030008CD030008B0
:1000F000CD030008CD030008CD030008CD030008A0
:10010000CD030008CD030008CD030008CD0300088F
:10011000CD030008CD030008CD030008CD0300087F
:10012000CD030008CD030008CD030008CD0300086F
:10013000CD030008CD030008CD030008CD0300085F
:10014000CD030008CD030008CD030008CD0300084F
:10015000CD030008CD030008CD030008CD0300083F
:10016000CD030008CD030008CD030008CD0300082F
:10017000CD030008CD030008CD03000800000000F7
:10018000CD030008CD0300080348044B834202D08E
:10019000034B03B1184770470C0000200C000020EF
:1001A000000000000548064B1B1AD90F01EBA30104
:1001B000491002D0034B03B1184770470C000020D0
:1001C0000C0000200000000010B5064C237843B955
:1001D000FFF7DAFF044B13B10448AFF300800123AB
:1001E000237010BD0C0000200000000098040008DF
:1001F00008B5044B1BB104490448AFF30080BDE8C7
:100200000840CFE70000000010000020980400081C
:1002100082B05F4AD2F8883043F47003C2F8883065
:100220005C4AD2F8003843F00103C2F80038D2F833
:10023000003813F0020FFAD0564AD2F8083843F0CB
:100240008003C2F8083800230193019B4F2B05D887
:10025000019B01330193019B4F2BF9D94D4AD2F8F1
:10026000083843F09003C2F8083800230193019B3B
:100270004F2B05D8019B01330193019B4F2BF9D9DB
:10028000444BD3F8082822F00302C3F80828D3F817
:10029000002822F0847222F48032C3F80028D3F8B8
:1002A000002822F48022C3F800280022C3F808287E
:1002B000D3F808183849C3F80418C3F80C28D3F841
:1002C000002842F48032C3F800284FF6FF7331490A
:1002D000D1F8002812F4003F01D1013BF8D12D4B99
:1002E000D3F8003813F4003F00D1FEE7294BD3F8D0
:1002F000402842F08052C3F8402828490A6842F456
:1003000040420A60D3F80828C3F80828D3F8082820
:1003100042F40042C3F80828D3F8082842F4A05257
:10032000C3F808281E4AC3F80428D3F8002842F06E
:100330008072C3F800281A46D2F8003813F0007F04
:10034000FAD0164A136843F480331360536813F4E9
:10035000803FFBD0114A136843F4003313605368A5
:1003600013F4003FFBD00B4BD3F8082822F0030214
:10037000C3F80828D3F8082842F00202C3F8082876
:100380001A46D2F8083813F0080FFAD002B07047B6
:1003900000ED00E00030024010300024007000400A
:1003A000196440090649074A074B9B1A03DD043BC1
:1003B000C858D050FBDCFFF72BFF00F009F870475E
:1003C0009C040008000000200C000020FEE700BF95
:1003D000FEE70000002301461A46184600F01EB84A
:1003E00038B5074D074C2C1BA41005D0013C55F81F
:1003F000043D9847002CF9D1BDE8384000F046B8DC
:100400000C00002008000020024B13B10248FFF747
:10041000E1BF704700000000E103000870B4164D12
:100420002C681CB365681F2D23DC38B9AB1C013563
:10043000656044F82310002070BC704704EB850C05
:100440000228CCF88820D4F888614FF0010202FA23
:1004500005F246EA0206C4F88861CCF80831E5D115
:10046000D4F88C311343C4F88C31DFE7034C2C6093
:10047000D8E74FF0FF30DFE7280000202C000020F5
:10048000F8B500BFF8BC08BC9E467047F8B500BF81
:0C049000F8BC08BC9E467047000000004D
:0C049C0009040008F1010008C901000873
:04000005080003A547
:00000001FF
