:020000040800F2
:10000000000003208D040008D5040008D504000872
:10001000D5040008D5040008D5040008000000003D
:10002000000000000000000000000000D5040008EF
:10003000D504000800000000D5040008D50400081D
:10004000D5040008D5040008D5040008D50400082C
:10005000D5040008D5040008D5040008D50400081C
:10006000D5040008D5040008D5040008D50400080C
:10007000D5040008D5040008D5040008D5040008FC
:10008000D5040008D5040008D5040008D5040008EC
:10009000D5040008D5040008D5040008D5040008DC
:1000A000D5040008D5040008D5040008D5040008CC
:1000B000D5040008D5040008D5040008D5040008BC
:1000C000D5040008D5040008D5040008D5040008AC
:1000D000D5040008D5040008D5040008D50400089C
:1000E000D5040008D5040008D5040008D50400088C
:1000F000D5040008D5040008D5040008D50400087C
:10010000D5040008D5040008D5040008D50400086B
:10011000D5040008D5040008D5040008D50400085B
:10012000D5040008D5040008D5040008D50400084B
:10013000D5040008D5040008D5040008D50400083B
:10014000D5040008D5040008D5040008D50400082B
:10015000D5040008D5040008D5040008D50400081B
:10016000D5040008D5040008D5040008D50400080B
:10017000D5040008D5040008D504000800000000DC
:08018000D5040008D5040008B5
:100188000348044B834202D0034B03B1184770471E
:100198000000002000000020000000000548064B79
:1001A8001B1AD90F01EBA301491002D0034B03B16D
:1001B80018477047000000200000002000000000E1
:1001C80010B5064C237843B9FFF7DAFF044B13B197
:1001D8000448AFF300800123237010BD0000002005
:1001E80000000000EC04000808B5044B1BB10449EA
:1001F8000448AFF30080BDE80840CFE700000000E6
:1002080004000020EC04000870B50F4B0F4DAB4202
:10021800A3EB050607D0B610002455F8043B0134BB
:100228009847A642F9D800F05DF9094D094B5E1BC5
:10023800AB424FEAA60606D0002455F8043B013429
:100248009847A642F9D870BD0405000804050008BF
:10025800040500080C050008002301461A46184644
:1002680000F014B838B5074D074C2C1BA41005D066
:10027800013C55F8043D9847002CF9D1BDE83840B9
:1002880000F036B9100500080C05000870B4164DCA
:100298002C681CB365681F2D23DC38B9AB1C0135ED
:1002A800656044F82310002070BC704704EB850C8F
:1002B8000228CCF88820D4F888614FF0010202FAAD
:1002C80005F246EA0206C4F88861CCF80831E5D19F
:1002D800D4F88C311343C4F88C31DFE7034C2C601D
:1002E800D8E74FF0FF30DFE71C0000202000002097
:1002F80082B05F4AD2F8883043F47003C2F888307D
:100308005C4AD2F8003843F00103C2F80038D2F84A
:10031800003813F0020FFAD0564AD2F8083843F0E2
:100328008003C2F8083800230193019B4F2B05D89E
:10033800019B01330193019B4F2BF9D94D4AD2F808
:10034800083843F09003C2F8083800230193019B52
:100358004F2B05D8019B01330193019B4F2BF9D9F2
:10036800444BD3F8082822F00302C3F80828D3F82E
:10037800002822F0847222F48032C3F80028D3F8CF
:10038800002822F48022C3F800280022C3F8082895
:10039800D3F808183849C3F80418C3F80C28D3F858
:1003A800002842F48032C3F800284FF6FF73314921
:1003B800D1F8002812F4003F01D1013BF8D12D4BB0
:1003C800D3F8003813F4003F00D1FEE7294BD3F8E7
:1003D800402842F08052C3F8402828490A6842F46D
:1003E80040420A60D3F80828C3F80828D3F8082838
:1003F80042F40042C3F80828D3F8082842F4A0526F
:10040800C3F808281E4AC3F80428D3F8002842F085
:100418008072C3F800281A46D2F8003813F0007F1B
:10042800FAD0164A136843F480331360536813F400
:10043800803FFBD0114A136843F4003313605368BC
:1004480013F4003FFBD00B4BD3F8082822F003022B
:10045800C3F80828D3F8082842F00202C3F808288D
:100468001A46D2F8083813F0080FFAD002B07047CD
:1004780000ED00E000300240103000240070004021
:1004880019644009002103E00B4B5B5843500431C9
:100498000A480B4B42189A42F6D30A4A02E0002354
:1004A80013600432084B9A42F9D3FFF721FFFFF794
:1004B800ABFE00F00CF870471005000800000020A3
:1004C8000000002000000020B0010020FEE7FEE749
:1004D800024B13B10248FFF7BFBE7047000000008F
:1004E8006D020008F8B500BFF8BC08BC9E4670470E
:0C04F800F8B500BFF8BC08BC9E46704779
:08050400D9040008F101000810
:04050C00C901000819
:040000050800048D5E
:00000001FF
