:020000040800F2
:10000000000003203D040008D9040008DB040008B8
:10001000650400086504000865040008000000008D
:10002000000000000000000000000000DD040008E7
:100030006504000800000000DF040008E104000877
:1000400065040008650400086504000865040008EC
:1000500065040008650400086504000865040008DC
:1000600065040008650400086504000865040008CC
:1000700065040008650400086504000865040008BC
:1000800065040008650400086504000865040008AC
:10009000650400086504000865040008650400089C
:1000A000650400086504000865040008650400088C
:1000B000650400086504000865040008650400087C
:1000C000650400086504000865040008650400086C
:1000D000650400086504000865040008650400085C
:1000E000650400086504000865040008650400084C
:1000F000650400086504000865040008650400083C
:10010000650400086504000865040008650400082B
:10011000650400086504000865040008650400081B
:10012000650400086504000865040008650400080B
:1001300065040008650400086504000865040008FB
:1001400065040008650400086504000865040008EB
:1001500065040008650400086504000865040008DB
:1001600065040008650400086504000865040008CB
:10017000650400086504000865040008000000002C
:1001800065040008650400080348044B834202D05C
:10019000034B03B1184770471000002010000020E7
:1001A000000000000548064B1B1AD90F01EBA30104
:1001B000491002D0034B03B11847704710000020CC
:1001C000100000200000000010B5064C237843B951
:1001D000FFF7DAFF044B13B10448AFF300800123AB
:1001E000237010BD10000020000000007C060008F5
:1001F00008B5044B1BB104490448AFF30080BDE8C7
:100200000840CFE700000000140000207C06000832
:1002100082B05F4AD2F8883043F47003C2F8883065
:100220005C4AD2F8003843F00103C2F80038D2F833
:10023000003813F0020FFAD0564AD2F8083843F0CB
:100240008003C2F8083800230193019B4F2B05D887
:10025000019B01330193019B4F2BF9D94D4AD2F8F1
:10026000083843F09003C2F8083800230193019B3B
:100270004F2B05D8019B01330193019B4F2BF9D9DB
:10028000444BD3F8082822F00302C3F80828D3F817
:10029000002822F0847222F48032C3F80028D3F8B8
:1002A000002822F48022C3F800280022C3F808287E
:1002B000D3F808183849C3F80418C3F80C28D3F841
:1002C000002842F48032C3F800284FF6FF7331490A
:1002D000D1F8002812F4003F01D1013BF8D12D4B99
:1002E000D3F8003813F4003F00D1FEE7294BD3F8D0
:1002F000402842F08052C3F8402828490A6842F456
:1003000040420A60D3F80828C3F80828D3F8082820
:1003100042F40042C3F80828D3F8082842F4A05257
:10032000C3F808281E4AC3F80428D3F8002842F06E
:100330008072C3F800281A46D2F8003813F0007F04
:10034000FAD0164A136843F480331360536813F4E9
:10035000803FFBD0114A136843F4003313605368A5
:1003600013F4003FFBD00B4BD3F8082822F0030214
:10037000C3F80828D3F8082842F00202C3F8082876
:100380001A46D2F8083813F0080FFAD002B07047B6
:1003900000ED00E00030024010300024007000400A
:1003A0001964400910B485B01F4B0FCB04AC04E9AD
:1003B0000F001E4BD3F80838C3F38103012B31D053
:1003C000022B11D01A4B1B490B60184AD2F808288F
:1003D000C2F3031210326A4412F8102CD3400B609F
:1003E00005B05DF8044B7047104BD3F8040800F0DB
:1003F0003F00D3F80418C1F38811D3F80428C2F3DE
:10040000014201325200D3F8043813F4800F084B34
:10041000094C18BF2346B3FBF0F301FB03F3B3FB16
:10042000F2F3D0E7044BCEE76C0600080030024040
:100430000024F4000000002040787D010649074AAE
:10044000074B9B1A03DD043BC858D050FBDCFFF779
:10045000DFFE00F009F87047800600080000002069
:1004600010000020FEE700BF08B540F6024000F093
:100470008DF8154C802300220121204600F038F829
:10048000802302220021204600F05AF880212046D5
:1004900000F078F8FFF786FF0C4B1B680C4AA2FBB4
:1004A00003239B09013BB3F1807F0BD24FF0E02285
:1004B0005361084BF02183F8231000239361072335
:1004C0001361FEE7FEE700BF0008024000000020C5
:1004D000D34D621000ED00E07047FEE770477047B3
:1004E00008B58021014800F04FF808BD000802401F
:1004F0002DE9F0430568C4684FF0000C012603277E
:1005000004E00CF1010CBCF1100F15D006FA0CFE42
:100510001EEA030FF5D04FEA4C0E07FA0EF825EA53
:10052000080501FA0EF949EA050524EA080402FA69
:100530000EFE4EEA0404E4E70560C460BDE8F08303
:1005400070B5012941680CBF194399434160846823
:1005500000214FF0010E032602E0013110290FD0D7
:100560000EFA01FC1CEA030FF7D04FEA410C06FA21
:100570000CF524EA050402FA0CFC4CEA0404ECE74E
:10058000846070BD81627047C1627047830903F166
:10059000804303F50E33196800F01F0001228240EA
:1005A0000A431A6070470000002301461A461846A5
:1005B00000F01EB838B5074D074C2C1BA41005D011
:1005C000013C55F8043D9847002CF9D1BDE838406E
:1005D00000F046B8100000200C000020024B13B1C0
:1005E0000248FFF7E1BF704700000000B5050008B2
:1005F00070B4164D2C681CB365681F2D23DC38B908
:10060000AB1C0135656044F82310002070BC7047B6
:1006100004EB850C0228CCF88820D4F888614FF0D0
:10062000010202FA05F246EA0206C4F88861CCF833
:100630000831E5D1D4F88C311343C4F88C31DFE7AD
:10064000034C2C60D8E74FF0FF30DFE72C00002090
:1006500030000020F8B500BFF8BC08BC9E467047CB
:10066000F8B500BFF8BC08BC9E467047000000000B
:100670000000000001020304060708090000000052
:1006800000C2EB0BDD050008F1010008C9010008FC
:040000050800043DAE
:00000001FF
