:020000040800F2
:1000000000000320290300087103000871030008A1
:10001000710300087103000871030008000000006C
:100020000000000000000000000000007103000854
:10003000710300080000000071030008710300084C
:1000400071030008710300087103000871030008C0
:1000500071030008710300087103000871030008B0
:1000600071030008710300087103000871030008A0
:100070007103000871030008710300087103000890
:100080007103000871030008710300087103000880
:100090007103000871030008710300087103000870
:1000A0007103000871030008710300087103000860
:1000B0007103000871030008710300087103000850
:1000C0007103000871030008710300087103000840
:1000D0007103000871030008710300087103000830
:1000E0007103000871030008710300087103000820
:1000F0007103000871030008710300087103000810
:1001000071030008710300087103000871030008FF
:1001100071030008710300087103000871030008EF
:1001200071030008710300087103000871030008DF
:1001300071030008710300087103000871030008CF
:1001400071030008710300087103000871030008BF
:1001500071030008710300087103000871030008AF
:10016000710300087103000871030008710300089F
:10017000710300087103000871030008000000000B
:0801800071030008710300087F
:100188000348044B834202D0034B03B1184770471E
:100198000400002004000020000000000548064B71
:1001A8001B1AD90F01EBA301491002D0034B03B16D
:1001B80018477047040000200400002000000000D9
:1001C80010B5064C237843B9FFF7DAFF044B13B197
:1001D8000448AFF300800123237010BD0400002001
:1001E80000000000740C000808B5044B1BB104495A
:1001F8000448AFF30080BDE80840CFE700000000E6
:1002080008000020740C000870B50F4B0F4DAB426E
:10021800A3EB050607D0B610002455F8043B0134BB
:100228009847A642F9D800F021FD094D094B5E1BFD
:10023800AB424FEAA60606D0002455F8043B013429
:100248009847A642F9D870BD9C0C00089C0C000881
:100258009C0C0008A40C0008002301461A46184606
:1002680000F014B838B5074D074C2C1BA41005D066
:10027800013C55F8043D9847002CF9D1BDE83840B9
:1002880000F0FABCA80C0008A40C000870B4164DC5
:100298002C681CB365681F2D23DC38B9AB1C0135ED
:1002A800656044F82310002070BC704704EB850C8F
:1002B8000228CCF88820D4F888614FF0010202FAAD
:1002C80005F246EA0206C4F88861CCF80831E5D19F
:1002D800D4F88C311343C4F88C31DFE7034C2C601D
:1002E800D8E74FF0FF30DFE720000020240000208F
:1002F80008B5064BD3F88830044A43F47003C2F8B3
:10030800883000F005F800BF08BD00BF00ED00E030
:1003180008B500F002F800BF08BD00BF7047000034
:10032800002103E00B4B5B58435004310A480B4B48
:1003380042189A42F6D30A4A02E0002313600432B4
:10034800084B9A42F9D3FFF7D3FFFFF75DFF00F0A0
:100358002DF87047A80C00080000002004000020B9
:1003680004000020B4010020FEE780B483B000AF91
:100378007860084611461A460346FB700B46BB7068
:1003880013463B807B68FA781A707B68BA785A7093
:100398007B683A885A807B683A7C1A717B68184671
:1003A8000C37BD465DF8047B7047000080B58CB003
:1003B80002AF404B7B62786A00F0F4FA786A00F08A
:1003C80002FB786A00F010FB786A00F038FA07F14F
:1003D8001000182300934FF4F0730A220021FFF74E
:1003E800C4FF07F110030CCB0121786A00F05DFA15
:1003F800786A00F03FFA0021786A00F06FFA042169
:10040800786A00F080FA0521786A00F091FA2A4BA0
:100418003B62386A00F0EAFB386A00F002FC02210D
:10042800786A00F09AFA786A00F064FB234BFB6163
:10043800234BBB6107F108030622F969184600F04F
:1004480071F93B460022B969184600F06BF907F1CB
:1004580008030121184600F0AAF907F10803002152
:10046800184600F0B6F907F108030021184600F015
:10047800C2F93B460021184600F099F93B46012194
:10048800184600F0CAF93B46184600F07FF90346C3
:1004980083F00103DBB2002B05D007F108031846EF
:1004A80000F064F9EFE707F10803184600F04EF989
:1004B800E9E700BF00380240007000400008024031
:1004C8000000024080B483B000AF0346FB71FB79A3
:1004D80018460C37BD465DF8047B704780B483B07E
:1004E80000AF0346FB71FB7918460C37BD465DF833
:1004F800047B7047B0B582B000AF78600B46FB70E4
:100508001346BB707B681C68FB781846FFF7DAFF58
:1005180003465B00032202FA03F3DB431C40BB786B
:100528001846FFF7DBFF03461D46FB781846FFF722
:10053800C9FF03465B0005FA03F344EA03027B683C
:100548001A6000BF0837BD46B0BD80B483B000AFA5
:100558000346FB71FB7918460C37BD465DF8047BF2
:100568007047B0B582B000AF78600B46FB70134699
:10057800BB707B685C68FB781846FFF7A3FF0346EF
:100588001A4601239340DB431C40BB781846FFF70B
:10059800DCFF03461D46FB781846FFF793FF03462A
:1005A80005FA03F344EA03027B685A6000BF083780
:1005B800BD46B0BD80B483B000AF0346FB71FB7984
:1005C80018460C37BD465DF8047B7047B0B582B05D
:1005D80000AF78600B46FB701346BB707B689C6865
:1005E800FB781846FFF76EFF03465B00032202FA0A
:1005F80003F3DB431C40BB781846FFF7DBFF0346D9
:100608001D46FB781846FFF75DFF03465B0005FAB9
:1006180003F344EA03027B689A6000BF0837BD46CB
:10062800B0BD80B483B000AF0346FB71FB791846B8
:100638000C37BD465DF8047B7047B0B582B000AF9B
:1006480078600B46FB701346BB707B68DC68FB78F0
:100658001846FFF737FF03465B00032202FA03F34D
:10066800DB431C40BB781846FFF7DBFF03461D46FB
:10067800FB781846FFF726FF03465B0005FA03F3ED
:1006880044EA03027B68DA6000BF0837BD46B0BDA4
:1006980090B583B000AF78600B46FB707B681C692F
:1006A800FB781846FFF70EFF03461A4601239340CE
:1006B8002340002B0CBF01230023DBB218460C3764
:1006C800BD4690BD80B582B000AF78600B46FB7028
:1006D800FB781846FFF7F6FE03461A46012303FA8D
:1006E80002F27B689B691A437B689A6100BF0837EE
:1006F800BD4680BD80B582B000AF78600B46FB7008
:10070800FB781846FFF7DEFE03461A46012393409E
:100718001A047B689B691A437B689A6100BF083793
:10072800BD4680BD80B485B000AFF860B96013469F
:10073800FB71FB68BA681A60FB68FA791A71FB6882
:1007480018461437BD465DF8047B704780B582B003
:1007580000AF78607B681A687B681B791946104679
:10076800FFF7B0FF00BF0837BD4680BD80B582B037
:1007780000AF78607B681A687B681B791946104659
:10078800FFF7B8FF00BF0837BD4680BD80B582B00F
:1007980000AF78607B681A687B681B791946104639
:1007A800FFF776FF034618460837BD4680BD80B57B
:1007B80082B000AF78600B46FB707B6818687B6876
:1007C8001B79FA781946FFF795FE00BF0837BD4632
:1007D80080BD80B582B000AF78600B46FB707B6847
:1007E80018687B681B79FA781946FFF7BAFE00BFCC
:1007F8000837BD4680BD80B582B000AF78600B4633
:10080800FB707B6818687B681B79FA781946FFF7D4
:10081800DDFE00BF0837BD4680BD80B582B000AFA1
:1008280078600B46FB707B6818687B681B79FA78E0
:100838001946FFF702FF00BF0837BD4680BD80B4E8
:1008480083B000AF78607A68937843F001039370BF
:1008580000BF7B689B78C3F34003DBB283F00103DE
:10086800DBB2002BF5D100BF00BF0C37BD465DF8E9
:10087800047B704780B483B000AF78607A68D3781F
:1008880043F00103D37000BF7B68DB78C3F34003F8
:10089800DBB283F00103DBB2002BF5D100BF00BF50
:1008A8000C37BD465DF8047B704780B584B000AF57
:1008B800F8600846394681E80C000346FB72FB7A6B
:1008C8001946F86800F09FF83B4693E80600F86878
:1008D80000F0AEF800BF1037BD4680BD80B483B0CD
:1008E80000AF78600B46FB70FB7803F00F03D9B2BA
:1008F8007A68137A61F30713137200BF0C37BD4689
:100908005DF8047B704780B483B000AF78600B4615
:10091800FB70FB7803F00703D9B27A68537A61F366
:100928008403537200BF0C37BD465DF8047B7047E3
:1009380080B483B000AF78600B46FB70FB7803F09F
:100948000703D9B27A68537A61F34713537200BF29
:100958000C37BD465DF8047B704780B483B000AFA8
:1009680078600B46FB70FB7803F00303D9B27A6812
:10097800137A61F30103137200BF7B681B7AC3F318
:100988008103DBB21A46FB78934214BF012300238C
:10099800DBB2002BF1D100BF00BF0C37BD465DF8BC
:1009A800047B704780B483B000AF78607A6892F8AF
:1009B800303043F0010382F8303000BF0C37BD46B9
:1009C8005DF8047B704780B483B000AF78607A68C4
:1009D80092F8303043F0040382F8303000BF0C370F
:1009E800BD465DF8047B704780B483B000AF786083
:1009F8007A68136C43F08053136400BF0C37BD460C
:100A08005DF8047B704780B483B000AF78600B4614
:100A1800FB70FB7803F00103D9B27A68937961F32C
:100A28008613937100BF0C37BD465DF8047B704791
:100A380080B485B000AFF8603B1D83E806003B79C1
:100A480003F00303D9B2FA68937961F30103937150
:100A5800FB88C3F3080399B2FA68938861F38E138D
:100A680093807B7903F00F03D9B2FA68D37961F3E5
:100A78000303D3713B7A03F03F03D9B2FA681379C1
:100A880061F30503137100BF1437BD465DF8047B9D
:100A9800704780B483B000AF0346FB71FB791846FA
:100AA8000C37BD465DF8047B704780B483B000AF57
:100AB8000346FB71FB7918460C37BD465DF8047B8D
:100AC800704780B483B000AF0346FB71FB791846CA
:100AD8000C37BD465DF8047B704780B483B000AF27
:100AE8000346FB71FB7918460C37BD465DF8047B5D
:100AF8007047000090B589B000AF78607B681B7ABA
:100B0800C3F38103DBB2022B0ED0022B4AD8002B91
:100B180002D0012B04D045E0304B314A1A6045E041
:100B28002E4B304A1A6041E07B681B79C3F30503FA
:100B3800DBB21846FFF7ADFF03460133FB617B6864
:100B48009B88C3F388139BB2BB617B689B79C3F313
:100B58000103DBB21846FFF7A8FF034601335B0029
:100B68007B617B689B79C3F38013DBB21846FFF780
:100B7800A8FF03461C460120FFF7A3FF03469C423B
:100B880001D1184B00E0164B3B613A69FB69B2FB97
:100B9800F3F3BA6903FB02F27B69B2FBF3F30F4A82
:100BA800136003E00D4B0E4A1A6000BF7B681B7A86
:100BB800C3F30313DBB21846FFF78FFF03461A4649
:100BC800094B9B5CFB60054B1A68FB6822FA03F330
:100BD800024A136000BF2437BD4690BD00000020C4
:100BE8000024F40040787D018C0C000880B483B0A8
:100BF80000AF78607A68136843F48033136000BFED
:100C08007B689B79C3F30003DBB283F00103DBB29B
:100C1800002BF5D100BF00BF0C37BD465DF8047B43
:100C2800704780B483B000AF78607A68136843F483
:100C38000033136000BF7B689B79C3F34003DBB2CA
:100C480083F00103DBB2002BF5D100BF00BF0C37E6
:100C5800BD465DF8047B7047024B13B10248FFF7AD
:100C6800FBBA7047000000006D020008F8B500BF2D
:100C7800F8BC08BC9E467047F8B500BFF8BC08BC75
:040C88009E467047CD
:100C8C000000000000000000010203040607080930
:080C9C00610C0008F1010008E1
:040CA400C90100087A
:040CA80000C2EB0B90
:0400000508000329C3
:00000001FF
