:020000040800F2
:1000000000000320E903000831040008310400085F
:100010003104000831040008310400080000000029
:100020000000000000000000000000003104000893
:100030003104000800000000310400083104000809
:1000400031040008310400083104000831040008BC
:1000500031040008310400083104000831040008AC
:10006000310400083104000831040008310400089C
:10007000310400083104000831040008310400088C
:10008000310400083104000831040008310400087C
:10009000310400083104000831040008310400086C
:1000A000310400083104000831040008310400085C
:1000B000310400083104000831040008310400084C
:1000C000310400083104000831040008310400083C
:1000D000310400083104000831040008310400082C
:1000E000310400083104000831040008310400081C
:1000F000310400083104000831040008310400080C
:1001000031040008310400083104000831040008FB
:1001100031040008310400083104000831040008EB
:1001200031040008310400083104000831040008DB
:1001300031040008310400083104000831040008CB
:1001400031040008310400083104000831040008BB
:1001500031040008310400083104000831040008AB
:10016000310400083104000831040008310400089B
:1001700031040008310400083104000800000000C8
:080180003104000831040008FD
:100188000348044B834202D0034B03B1184770471E
:100198000000002000000020000000000548064B79
:1001A8001B1AD90F01EBA301491002D0034B03B16D
:1001B80018477047000000200000002000000000E1
:1001C80010B5064C237843B9FFF7DAFF044B13B197
:1001D8000448AFF300800123237010BD0000002005
:1001E80000000000B005000808B5044B1BB1044925
:1001F8000448AFF30080BDE80840CFE700000000E6
:1002080004000020B005000870B50F4B0F4DAB423D
:10021800A3EB050607D0B610002455F8043B0134BB
:100228009847A642F9D800F0BFF9094D094B5E1B63
:10023800AB424FEAA60606D0002455F8043B013429
:100248009847A642F9D870BDC8050008C805000837
:10025800C8050008D0050008002301461A461846BC
:1002680000F014B838B5074D074C2C1BA41005D066
:10027800013C55F8043D9847002CF9D1BDE83840B9
:1002880000F098B9D4050008D005000870B4164DE0
:100298002C681CB365681F2D23DC38B9AB1C0135ED
:1002A800656044F82310002070BC704704EB850C8F
:1002B8000228CCF88820D4F888614FF0010202FAAD
:1002C80005F246EA0206C4F88861CCF80831E5D19F
:1002D800D4F88C311343C4F88C31DFE7034C2C601D
:1002E800D8E74FF0FF30DFE71C0000202000002097
:1002F800374AD2F8883043F47003C2F88830354A58
:10030800D2F8003843F48033C2F800384FF6FF7350
:100318001146D1F8002812F4003F01D1013BF8D171
:100328002C4BD3F8003813F4003F00D1FEE7294BDB
:10033800D3F8402842F08052C3F8402826490A687A
:1003480042F440420A60D3F80828C3F80828D3F8D2
:10035800082842F40042C3F80828D3F8082842F4D1
:10036800A052C3F808281D4AC3F80428D3F8002867
:1003780042F08072C3F800281A46D2F8003813F009
:10038800007FFAD0144A136843F48033136053682B
:1003980013F4803FFBD0104A136843F40033136012
:1003A800536813F4003FFBD00A4BD3F8082822F017
:1003B8000302C3F80828D3F8082842F00202C3F859
:1003C80008281A46D2F8083813F0080FFAD07047F0
:1003D80000ED00E000300240007000401964400960
:1003E800002103E00B4B5B58435004310A480B4B88
:1003F80042189A42F6D30A4A02E0002313600432F4
:10040800084B9A42F9D3FFF773FFFFF7FDFE00F0A0
:100418000DF87047D40500080000002000000020F7
:1004280000000020B0010020FEE7000000B585B004
:1004380040F6024000F0A1F84FF4406000F09DF84B
:100448000622154902A800F061F8002213496846FF
:1004580000F05CF8012102A800F073F8002102A85E
:1004680000F076F8002102A800F079F8002168462B
:1004780000F067F80121684600F078F802E002A869
:1004880000F04FF8684600F052F80028F7D002A8AC
:1004980000F03FF8F6E700BF000802400000024005
:1004A800036849004FF0030C0CFA01FC23EA0C0323
:1004B8008A4013430360704743684FF0010C0CFAFD
:1004C80001FC23EA0C038A401343436070478368A6
:1004D80049004FF0030C0CFA01FC23EA0C038A4094
:1004E800134383607047C36849004FF0030C0CFA4C
:1004F80001FC23EA0C038A401343C36070478269F6
:100508004FF480338B40134383617047016002715D
:100518007047026891690079012383400B43936116
:10052800704708B501790068FFF7E9FF08BD03685F
:100538001A69017901238B4013420CBF0120002066
:10054800704708B50A4601790068FFF7A9FF08BD9A
:1005580008B50A4601790068FFF7AEFF08BD08B57F
:100568000A4601790068FFF7B2FF08BD08B50A46D8
:1005780001790068FFF7B7FF08BD830903F18043DD
:1005880003F50E33196800F01F00012282400A4368
:100598001A607047024B13B10248FFF75DBE7047FF
:1005A800000000006D020008F8B500BFF8BC08BCE8
:1005B8009E467047F8B500BFF8BC08BC9E46704719
:0805C8009D050008F101000887
:0405D000C901000855
:04000005080003E903
:00000001FF
